0174822010000000          310320161130                                                                                                                                                                  
1C0000183490O MESTRE DOS MATERIAIS                  00778553000170            000                              00000000001467000          000N                                                          
1C0000123450CLIENTE 2 TESTE PROSEGUR - POSTO X      00123456789123            000                              00000000001235000          000N                                                          
900000000000000000000000000200000000002702000                                                                                                                                                           
